{
    "_format": "hh-sol-artifact-1",
    "contractName": "InsureBlocks",
    "sourceName": "contracts/insurance.sol",
    "abi": [
        {
            "inputs": [],
            "stateMutability": "nonpayable",
            "type": "constructor"
        },
        {
            "anonymous": false,
            "inputs": [
                {
                    "indexed": true,
                    "internalType": "address",
                    "name": "owner",
                    "type": "address"
                },
                {
                    "indexed": true,
                    "internalType": "address",
                    "name": "beneficiary",
                    "type": "address"
                },
                {
                    "indexed": false,
                    "internalType": "uint256",
                    "name": "amountAuthorised",
                    "type": "uint256"
                },
                {
                    "indexed": false,
                    "internalType": "uint256",
                    "name": "iD",
                    "type": "uint256"
                }
            ],
            "name": "AuthorizedToWithdraw",
            "type": "event"
        },
        {
            "anonymous": false,
            "inputs": [
                {
                    "indexed": true,
                    "internalType": "address",
                    "name": "owner",
                    "type": "address"
                },
                {
                    "indexed": true,
                    "internalType": "address",
                    "name": "beneficiary",
                    "type": "address"
                },
                {
                    "indexed": false,
                    "internalType": "uint256",
                    "name": "amount",
                    "type": "uint256"
                },
                {
                    "indexed": false,
                    "internalType": "uint256",
                    "name": "id",
                    "type": "uint256"
                }
            ],
            "name": "ClaimMade",
            "type": "event"
        },
        {
            "anonymous": false,
            "inputs": [
                {
                    "indexed": true,
                    "internalType": "address",
                    "name": "owner",
                    "type": "address"
                },
                {
                    "indexed": false,
                    "internalType": "uint256",
                    "name": "_amountDeposited",
                    "type": "uint256"
                }
            ],
            "name": "InsuranceDeposit",
            "type": "event"
        },
        {
            "anonymous": false,
            "inputs": [
                {
                    "indexed": true,
                    "internalType": "address",
                    "name": "owner",
                    "type": "address"
                },
                {
                    "indexed": false,
                    "internalType": "uint256",
                    "name": "_amountInsured",
                    "type": "uint256"
                },
                {
                    "indexed": false,
                    "internalType": "string",
                    "name": "typeOfInsurance",
                    "type": "string"
                },
                {
                    "indexed": false,
                    "internalType": "uint256",
                    "name": "iD",
                    "type": "uint256"
                }
            ],
            "name": "InsuranceMade",
            "type": "event"
        },
        {
            "inputs": [
                {
                    "internalType": "uint256",
                    "name": "iD",
                    "type": "uint256"
                },
                {
                    "internalType": "address",
                    "name": "_newBeneficiary",
                    "type": "address"
                }
            ],
            "name": "changeBeneficiary",
            "outputs": [],
            "stateMutability": "nonpayable",
            "type": "function"
        },
        {
            "inputs": [
                {
                    "internalType": "uint256",
                    "name": "iD",
                    "type": "uint256"
                },
                {
                    "internalType": "uint256",
                    "name": "__amount",
                    "type": "uint256"
                },
                {
                    "internalType": "string",
                    "name": "_pass",
                    "type": "string"
                }
            ],
            "name": "changeBeneficiaryAmount",
            "outputs": [
                {
                    "internalType": "bool",
                    "name": "",
                    "type": "bool"
                }
            ],
            "stateMutability": "nonpayable",
            "type": "function"
        },
        {
            "inputs": [
                {
                    "internalType": "string",
                    "name": "_pass",
                    "type": "string"
                },
                {
                    "internalType": "string",
                    "name": "newPass",
                    "type": "string"
                }
            ],
            "name": "changePassword",
            "outputs": [
                {
                    "internalType": "bool",
                    "name": "",
                    "type": "bool"
                }
            ],
            "stateMutability": "nonpayable",
            "type": "function"
        },
        {
            "inputs": [
                {
                    "internalType": "uint256",
                    "name": "id",
                    "type": "uint256"
                },
                {
                    "internalType": "uint256",
                    "name": "_amount",
                    "type": "uint256"
                }
            ],
            "name": "claim",
            "outputs": [
                {
                    "internalType": "bool",
                    "name": "",
                    "type": "bool"
                }
            ],
            "stateMutability": "nonpayable",
            "type": "function"
        },
        {
            "inputs": [],
            "name": "count",
            "outputs": [
                {
                    "internalType": "uint256",
                    "name": "",
                    "type": "uint256"
                }
            ],
            "stateMutability": "view",
            "type": "function"
        },
        {
            "inputs": [
                {
                    "internalType": "uint256",
                    "name": "iD",
                    "type": "uint256"
                }
            ],
            "name": "getBeneficiary",
            "outputs": [
                {
                    "internalType": "address",
                    "name": "",
                    "type": "address"
                }
            ],
            "stateMutability": "view",
            "type": "function"
        },
        {
            "inputs": [],
            "name": "getContractBalance",
            "outputs": [
                {
                    "internalType": "uint256",
                    "name": "",
                    "type": "uint256"
                }
            ],
            "stateMutability": "view",
            "type": "function"
        },
        {
            "inputs": [
                {
                    "internalType": "string",
                    "name": "a1",
                    "type": "string"
                }
            ],
            "name": "hashPassword",
            "outputs": [
                {
                    "internalType": "bytes32",
                    "name": "",
                    "type": "bytes32"
                }
            ],
            "stateMutability": "pure",
            "type": "function"
        },
        {
            "inputs": [
                {
                    "internalType": "uint256",
                    "name": "amount",
                    "type": "uint256"
                }
            ],
            "name": "insuranceDeposit",
            "outputs": [
                {
                    "internalType": "bool",
                    "name": "",
                    "type": "bool"
                }
            ],
            "stateMutability": "payable",
            "type": "function"
        },
        {
            "inputs": [
                {
                    "internalType": "uint256",
                    "name": "_amount",
                    "type": "uint256"
                },
                {
                    "internalType": "string",
                    "name": "typeOfInsurance",
                    "type": "string"
                },
                {
                    "internalType": "address",
                    "name": "_beneficiary",
                    "type": "address"
                },
                {
                    "internalType": "uint256",
                    "name": "_maxAmountForBenef",
                    "type": "uint256"
                },
                {
                    "internalType": "string",
                    "name": "_password",
                    "type": "string"
                }
            ],
            "name": "insure",
            "outputs": [],
            "stateMutability": "payable",
            "type": "function"
        },
        {
            "inputs": [
                {
                    "internalType": "address",
                    "name": "",
                    "type": "address"
                }
            ],
            "name": "isInsuree",
            "outputs": [
                {
                    "internalType": "bool",
                    "name": "",
                    "type": "bool"
                }
            ],
            "stateMutability": "view",
            "type": "function"
        },
        {
            "inputs": [
                {
                    "internalType": "address",
                    "name": "",
                    "type": "address"
                }
            ],
            "name": "passwordHash",
            "outputs": [
                {
                    "internalType": "bytes32",
                    "name": "",
                    "type": "bytes32"
                }
            ],
            "stateMutability": "view",
            "type": "function"
        },
        {
            "inputs": [
                {
                    "internalType": "bytes32",
                    "name": "_hashedPassword",
                    "type": "bytes32"
                },
                {
                    "internalType": "string",
                    "name": "a2",
                    "type": "string"
                }
            ],
            "name": "stringsEqual",
            "outputs": [
                {
                    "internalType": "bool",
                    "name": "",
                    "type": "bool"
                }
            ],
            "stateMutability": "pure",
            "type": "function"
        },
        {
            "inputs": [
                {
                    "internalType": "string",
                    "name": "_password",
                    "type": "string"
                },
                {
                    "internalType": "uint256",
                    "name": "iD",
                    "type": "uint256"
                }
            ],
            "name": "toggleAuthorisation",
            "outputs": [],
            "stateMutability": "payable",
            "type": "function"
        },
        {
            "inputs": [
                {
                    "internalType": "uint256",
                    "name": "iD",
                    "type": "uint256"
                },
                {
                    "internalType": "uint256",
                    "name": "_amount",
                    "type": "uint256"
                }
            ],
            "name": "topUpPortfolio",
            "outputs": [],
            "stateMutability": "payable",
            "type": "function"
        },
        {
            "inputs": [
                {
                    "internalType": "uint256",
                    "name": "amount",
                    "type": "uint256"
                },
                {
                    "internalType": "address",
                    "name": "payee",
                    "type": "address"
                }
            ],
            "name": "transferBalance",
            "outputs": [],
            "stateMutability": "payable",
            "type": "function"
        },
        {
            "inputs": [],
            "name": "userCount",
            "outputs": [
                {
                    "internalType": "uint256",
                    "name": "",
                    "type": "uint256"
                }
            ],
            "stateMutability": "view",
            "type": "function"
        },
        {
            "stateMutability": "payable",
            "type": "receive"
        }
    ],
    "bytecode": "0x608060405234801561001057600080fd5b50306000806101000a81548173ffffffffffffffffffffffffffffffffffffffff021916908373ffffffffffffffffffffffffffffffffffffffff16021790555033600160006101000a81548173ffffffffffffffffffffffffffffffffffffffff021916908373ffffffffffffffffffffffffffffffffffffffff16021790555061313e806100a16000396000f3fe6080604052600436106101025760003560e01c80636f9fb98a11610095578063b0070a3011610064578063b0070a3014610344578063c34902631461036d578063d06c432c146103aa578063d138e741146103e7578063e0e0f3781461042457610109565b80636f9fb98a14610262578063803681141461028d57806384a83662146102ca578063920952b31461030757610109565b8063302df083116100d1578063302df0831461019c578063328629cf146101d95780633f75a07d146101f557806356342b681461023257610109565b806306661abd1461010e57806307973ccf146101395780631414046c14610164578063237402c21461018057610109565b3661010957005b600080fd5b34801561011a57600080fd5b50610123610440565b6040516101309190612004565b60405180910390f35b34801561014557600080fd5b5061014e610446565b60405161015b9190612004565b60405180910390f35b61017e60048036038101906101799190612203565b61044c565b005b61019a600480360381019061019591906122b6565b610ac4565b005b3480156101a857600080fd5b506101c360048036038101906101be91906122f6565b610de2565b6040516101d09190612332565b60405180910390f35b6101f360048036038101906101ee919061234d565b610f40565b005b34801561020157600080fd5b5061021c6004803603810190610217919061238d565b6111c6565b60405161022991906123ef565b60405180910390f35b61024c600480360381019061024791906122f6565b6111f6565b6040516102599190612425565b60405180910390f35b34801561026e57600080fd5b50610277611428565b6040516102849190612004565b60405180910390f35b34801561029957600080fd5b506102b460048036038101906102af919061246c565b611430565b6040516102c19190612425565b60405180910390f35b3480156102d657600080fd5b506102f160048036038101906102ec91906124c8565b611471565b6040516102fe9190612425565b60405180910390f35b34801561031357600080fd5b5061032e60048036038101906103299190612540565b61155c565b60405161033b9190612425565b60405180910390f35b34801561035057600080fd5b5061036b6004803603810190610366919061234d565b61157c565b005b34801561037957600080fd5b50610394600480360381019061038f91906122b6565b6116f3565b6040516103a19190612425565b60405180910390f35b3480156103b657600080fd5b506103d160048036038101906103cc9190612540565b611a46565b6040516103de91906123ef565b60405180910390f35b3480156103f357600080fd5b5061040e6004803603810190610409919061256d565b611a5e565b60405161041b9190612425565b60405180910390f35b61043e600480360381019061043991906125dc565b611c92565b005b60085481565b60075481565b600073ffffffffffffffffffffffffffffffffffffffff163373ffffffffffffffffffffffffffffffffffffffff1614156104bc576040517f08c379a00000000000000000000000000000000000000000000000000000000081526004016104b3906126bb565b60405180910390fd5b6104c5856111f6565b610504576040517f08c379a00000000000000000000000000000000000000000000000000000000081526004016104fb9061274d565b60405180910390fd5b600560003373ffffffffffffffffffffffffffffffffffffffff1673ffffffffffffffffffffffffffffffffffffffff16815260200190815260200160002060009054906101000a900460ff16610618576000610560826111c6565b905080600660003373ffffffffffffffffffffffffffffffffffffffff1673ffffffffffffffffffffffffffffffffffffffff16815260200190815260200160002081905550600760008154809291906105b99061279c565b91905055506001600560003373ffffffffffffffffffffffffffffffffffffffff1673ffffffffffffffffffffffffffffffffffffffff16815260200190815260200160002060006101000a81548160ff021916908315150217905550505b600460003373ffffffffffffffffffffffffffffffffffffffff1673ffffffffffffffffffffffffffffffffffffffff16815260200190815260200160002060008154809291906106689061279c565b91905055506040518061010001604052803373ffffffffffffffffffffffffffffffffffffffff168152602001600460003373ffffffffffffffffffffffffffffffffffffffff1673ffffffffffffffffffffffffffffffffffffffff168152602001908152602001600020548152602001858152602001868152602001600081526020018473ffffffffffffffffffffffffffffffffffffffff16815260200183815260200160001515815250600360003373ffffffffffffffffffffffffffffffffffffffff1673ffffffffffffffffffffffffffffffffffffffff1681526020019081526020016000206000600460003373ffffffffffffffffffffffffffffffffffffffff1673ffffffffffffffffffffffffffffffffffffffff16815260200190815260200160002054815260200190815260200160002060008201518160000160006101000a81548173ffffffffffffffffffffffffffffffffffffffff021916908373ffffffffffffffffffffffffffffffffffffffff160217905550602082015181600101556040820151816002019080519060200190610812929190611f48565b50606082015181600301556080820151816004015560a08201518160050160006101000a81548173ffffffffffffffffffffffffffffffffffffffff021916908373ffffffffffffffffffffffffffffffffffffffff16021790555060c0820151816006015560e08201518160070160006101000a81548160ff021916908315150217905550905050600860008154809291906108ae9061279c565b91905055506040518061010001604052803373ffffffffffffffffffffffffffffffffffffffff1681526020016008548152602001858152602001868152602001600460003373ffffffffffffffffffffffffffffffffffffffff1673ffffffffffffffffffffffffffffffffffffffff1681526020019081526020016000205481526020018473ffffffffffffffffffffffffffffffffffffffff168152602001600081526020016000151581525060026000600854815260200190815260200160002060008201518160000160006101000a81548173ffffffffffffffffffffffffffffffffffffffff021916908373ffffffffffffffffffffffffffffffffffffffff1602179055506020820151816001015560408201518160020190805190602001906109e0929190611f48565b50606082015181600301556080820151816004015560a08201518160050160006101000a81548173ffffffffffffffffffffffffffffffffffffffff021916908373ffffffffffffffffffffffffffffffffffffffff16021790555060c0820151816006015560e08201518160070160006101000a81548160ff0219169083151502179055509050503373ffffffffffffffffffffffffffffffffffffffff167f5d7d31c29d1a27e6f63cd77a3c8858869f2b0ba596bb8d85f064ba59c1b61f948686600854604051610ab59392919061285c565b60405180910390a25050505050565b60001515600060149054906101000a900460ff16151514610b1a576040517f08c379a0000000000000000000000000000000000000000000000000000000008152600401610b119061290c565b60405180910390fd5b6001600060146101000a81548160ff021916908315150217905550600073ffffffffffffffffffffffffffffffffffffffff163373ffffffffffffffffffffffffffffffffffffffff161415610ba5576040517f08c379a0000000000000000000000000000000000000000000000000000000008152600401610b9c906126bb565b60405180910390fd5b600360003373ffffffffffffffffffffffffffffffffffffffff1673ffffffffffffffffffffffffffffffffffffffff168152602001908152602001600020600083815260200190815260200160002060000160009054906101000a900473ffffffffffffffffffffffffffffffffffffffff1673ffffffffffffffffffffffffffffffffffffffff163373ffffffffffffffffffffffffffffffffffffffff1614610c86576040517f08c379a0000000000000000000000000000000000000000000000000000000008152600401610c7d90612978565b60405180910390fd5b6000600360003373ffffffffffffffffffffffffffffffffffffffff1673ffffffffffffffffffffffffffffffffffffffff1681526020019081526020016000206000848152602001908152602001600020905060008060009054906101000a900473ffffffffffffffffffffffffffffffffffffffff1673ffffffffffffffffffffffffffffffffffffffff1683604051610d21906129c9565b60006040518083038185875af1925050503d8060008114610d5e576040519150601f19603f3d011682016040523d82523d6000602084013e610d63565b606091505b5050905080610da7576040517f08c379a0000000000000000000000000000000000000000000000000000000008152600401610d9e90612a2a565b60405180910390fd5b82826003016000828254610dbb9190612a4a565b92505081905550505060008060146101000a81548160ff0219169083151502179055505050565b6000600360003373ffffffffffffffffffffffffffffffffffffffff1673ffffffffffffffffffffffffffffffffffffffff168152602001908152602001600020600083815260200190815260200160002060000160009054906101000a900473ffffffffffffffffffffffffffffffffffffffff1673ffffffffffffffffffffffffffffffffffffffff163373ffffffffffffffffffffffffffffffffffffffff1614610ec5576040517f08c379a0000000000000000000000000000000000000000000000000000000008152600401610ebc90612aec565b60405180910390fd5b600360003373ffffffffffffffffffffffffffffffffffffffff1673ffffffffffffffffffffffffffffffffffffffff168152602001908152602001600020600083815260200190815260200160002060050160009054906101000a900473ffffffffffffffffffffffffffffffffffffffff169050919050565b600160009054906101000a900473ffffffffffffffffffffffffffffffffffffffff1673ffffffffffffffffffffffffffffffffffffffff163373ffffffffffffffffffffffffffffffffffffffff1614610fd0576040517f08c379a0000000000000000000000000000000000000000000000000000000008152600401610fc790612b7e565b60405180910390fd5b600073ffffffffffffffffffffffffffffffffffffffff163373ffffffffffffffffffffffffffffffffffffffff161415611040576040517f08c379a0000000000000000000000000000000000000000000000000000000008152600401611037906126bb565b60405180910390fd5b60001515600060149054906101000a900460ff16151514611096576040517f08c379a000000000000000000000000000000000000000000000000000000000815260040161108d9061290c565b60405180910390fd5b6001600060146101000a81548160ff0219169083151502179055506110b9611428565b8211156110fb576040517f08c379a00000000000000000000000000000000000000000000000000000000081526004016110f290612c10565b60405180910390fd5b60008173ffffffffffffffffffffffffffffffffffffffff1683604051611121906129c9565b60006040518083038185875af1925050503d806000811461115e576040519150601f19603f3d011682016040523d82523d6000602084013e611163565b606091505b50509050806111a7576040517f08c379a000000000000000000000000000000000000000000000000000000000815260040161119e90612c7c565b60405180910390fd5b5060008060146101000a81548160ff0219169083151502179055505050565b6000816040516020016111d99190612c9c565b604051602081830303815290604052805190602001209050919050565b60008073ffffffffffffffffffffffffffffffffffffffff163373ffffffffffffffffffffffffffffffffffffffff161415611267576040517f08c379a000000000000000000000000000000000000000000000000000000000815260040161125e906126bb565b60405180910390fd5b60001515600060149054906101000a900460ff161515146112bd576040517f08c379a00000000000000000000000000000000000000000000000000000000081526004016112b49061290c565b60405180910390fd5b6001600060146101000a81548160ff02191690831515021790555060008060009054906101000a900473ffffffffffffffffffffffffffffffffffffffff1673ffffffffffffffffffffffffffffffffffffffff168360405161131f906129c9565b60006040518083038185875af1925050503d806000811461135c576040519150601f19603f3d011682016040523d82523d6000602084013e611361565b606091505b50509050806113a5576040517f08c379a000000000000000000000000000000000000000000000000000000000815260040161139c90612d0a565b60405180910390fd5b8015611403573373ffffffffffffffffffffffffffffffffffffffff167fb4c4c46391f755752bf07c542506016584a39bdc2c1e8dd64a2b787fa8df742b846040516113f19190612004565b60405180910390a26001915050611409565b60009150505b60008060146101000a81548160ff021916908315150217905550919050565b600047905090565b6000816040516020016114439190612c9c565b604051602081830303815290604052805190602001208314611466576000611469565b60015b905092915050565b600080600660003373ffffffffffffffffffffffffffffffffffffffff1673ffffffffffffffffffffffffffffffffffffffff1681526020019081526020016000205490506114c08185611430565b6114ff576040517f08c379a00000000000000000000000000000000000000000000000000000000081526004016114f690612d76565b60405180910390fd5b600061150a846111c6565b905080600660003373ffffffffffffffffffffffffffffffffffffffff1673ffffffffffffffffffffffffffffffffffffffff1681526020019081526020016000208190555060019250505092915050565b60056020528060005260406000206000915054906101000a900460ff1681565b600360003373ffffffffffffffffffffffffffffffffffffffff1673ffffffffffffffffffffffffffffffffffffffff168152602001908152602001600020600083815260200190815260200160002060000160009054906101000a900473ffffffffffffffffffffffffffffffffffffffff1673ffffffffffffffffffffffffffffffffffffffff163373ffffffffffffffffffffffffffffffffffffffff161461165d576040517f08c379a000000000000000000000000000000000000000000000000000000000815260040161165490612aec565b60405180910390fd5b80600360003373ffffffffffffffffffffffffffffffffffffffff1673ffffffffffffffffffffffffffffffffffffffff168152602001908152602001600020600084815260200190815260200160002060050160006101000a81548173ffffffffffffffffffffffffffffffffffffffff021916908373ffffffffffffffffffffffffffffffffffffffff1602179055505050565b600080600260008581526020019081526020016000206004015490506000600360003373ffffffffffffffffffffffffffffffffffffffff1673ffffffffffffffffffffffffffffffffffffffff1681526020019081526020016000206000838152602001908152602001600020905080600301548411156117aa576040517f08c379a00000000000000000000000000000000000000000000000000000000081526004016117a190612e08565b60405180910390fd5b8060070160009054906101000a900460ff166117fb576040517f08c379a00000000000000000000000000000000000000000000000000000000081526004016117f290612e9a565b60405180910390fd5b8060050160009054906101000a900473ffffffffffffffffffffffffffffffffffffffff1673ffffffffffffffffffffffffffffffffffffffff163373ffffffffffffffffffffffffffffffffffffffff161461188d576040517f08c379a000000000000000000000000000000000000000000000000000000000815260040161188490612f2c565b60405180910390fd5b80600601548411156118d4576040517f08c379a00000000000000000000000000000000000000000000000000000000081526004016118cb90612fbe565b60405180910390fd5b60003373ffffffffffffffffffffffffffffffffffffffff16856040516118fa906129c9565b60006040518083038185875af1925050503d8060008114611937576040519150601f19603f3d011682016040523d82523d6000602084013e61193c565b606091505b5050905080611980576040517f08c379a00000000000000000000000000000000000000000000000000000000081526004016119779061302a565b60405180910390fd5b84826003016000828254611994919061304a565b925050819055508015611a38573373ffffffffffffffffffffffffffffffffffffffff168260000160009054906101000a900473ffffffffffffffffffffffffffffffffffffffff1673ffffffffffffffffffffffffffffffffffffffff167f30c04a6d6247d5920a1871300077399be475e11f2a86350431f8cb1061ab7f868789604051611a2492919061307e565b60405180910390a360019350505050611a40565b600093505050505b92915050565b60066020528060005260406000206000915090505481565b6000600360003373ffffffffffffffffffffffffffffffffffffffff1673ffffffffffffffffffffffffffffffffffffffff168152602001908152602001600020600085815260200190815260200160002060000160009054906101000a900473ffffffffffffffffffffffffffffffffffffffff1673ffffffffffffffffffffffffffffffffffffffff163373ffffffffffffffffffffffffffffffffffffffff1614611b41576040517f08c379a0000000000000000000000000000000000000000000000000000000008152600401611b3890612aec565b60405180910390fd5b600360003373ffffffffffffffffffffffffffffffffffffffff1673ffffffffffffffffffffffffffffffffffffffff168152602001908152602001600020600085815260200190815260200160002060030154831115611ba157600080fd5b6000600660003373ffffffffffffffffffffffffffffffffffffffff1673ffffffffffffffffffffffffffffffffffffffff168152602001908152602001600020549050611bef8184611430565b611c2e576040517f08c379a0000000000000000000000000000000000000000000000000000000008152600401611c2590612d76565b60405180910390fd5b83600360003373ffffffffffffffffffffffffffffffffffffffff1673ffffffffffffffffffffffffffffffffffffffff16815260200190815260200160002060008781526020019081526020016000206006018190555060019150509392505050565b600360003373ffffffffffffffffffffffffffffffffffffffff1673ffffffffffffffffffffffffffffffffffffffff168152602001908152602001600020600082815260200190815260200160002060000160009054906101000a900473ffffffffffffffffffffffffffffffffffffffff1673ffffffffffffffffffffffffffffffffffffffff163373ffffffffffffffffffffffffffffffffffffffff1614611d73576040517f08c379a0000000000000000000000000000000000000000000000000000000008152600401611d6a90612aec565b60405180910390fd5b6000600660003373ffffffffffffffffffffffffffffffffffffffff1673ffffffffffffffffffffffffffffffffffffffff168152602001908152602001600020549050611dc18184611430565b611e00576040517f08c379a0000000000000000000000000000000000000000000000000000000008152600401611df790612d76565b60405180910390fd5b600360003373ffffffffffffffffffffffffffffffffffffffff1673ffffffffffffffffffffffffffffffffffffffff168152602001908152602001600020600083815260200190815260200160002060070160009054906101000a900460ff16611ed6576001600360003373ffffffffffffffffffffffffffffffffffffffff1673ffffffffffffffffffffffffffffffffffffffff168152602001908152602001600020600084815260200190815260200160002060070160006101000a81548160ff021916908315150217905550611f43565b6000600360003373ffffffffffffffffffffffffffffffffffffffff1673ffffffffffffffffffffffffffffffffffffffff168152602001908152602001600020600084815260200190815260200160002060070160006101000a81548160ff0219169083151502179055505b505050565b828054611f54906130d6565b90600052602060002090601f016020900481019282611f765760008555611fbd565b82601f10611f8f57805160ff1916838001178555611fbd565b82800160010185558215611fbd579182015b82811115611fbc578251825591602001919060010190611fa1565b5b509050611fca9190611fce565b5090565b5b80821115611fe7576000816000905550600101611fcf565b5090565b6000819050919050565b611ffe81611feb565b82525050565b60006020820190506120196000830184611ff5565b92915050565b6000604051905090565b600080fd5b600080fd5b61203c81611feb565b811461204757600080fd5b50565b60008135905061205981612033565b92915050565b600080fd5b600080fd5b6000601f19601f8301169050919050565b7f4e487b7100000000000000000000000000000000000000000000000000000000600052604160045260246000fd5b6120b282612069565b810181811067ffffffffffffffff821117156120d1576120d061207a565b5b80604052505050565b60006120e461201f565b90506120f082826120a9565b919050565b600067ffffffffffffffff8211156121105761210f61207a565b5b61211982612069565b9050602081019050919050565b82818337600083830152505050565b6000612148612143846120f5565b6120da565b90508281526020810184848401111561216457612163612064565b5b61216f848285612126565b509392505050565b600082601f83011261218c5761218b61205f565b5b813561219c848260208601612135565b91505092915050565b600073ffffffffffffffffffffffffffffffffffffffff82169050919050565b60006121d0826121a5565b9050919050565b6121e0816121c5565b81146121eb57600080fd5b50565b6000813590506121fd816121d7565b92915050565b600080600080600060a0868803121561221f5761221e612029565b5b600061222d8882890161204a565b955050602086013567ffffffffffffffff81111561224e5761224d61202e565b5b61225a88828901612177565b945050604061226b888289016121ee565b935050606061227c8882890161204a565b925050608086013567ffffffffffffffff81111561229d5761229c61202e565b5b6122a988828901612177565b9150509295509295909350565b600080604083850312156122cd576122cc612029565b5b60006122db8582860161204a565b92505060206122ec8582860161204a565b9150509250929050565b60006020828403121561230c5761230b612029565b5b600061231a8482850161204a565b91505092915050565b61232c816121c5565b82525050565b60006020820190506123476000830184612323565b92915050565b6000806040838503121561236457612363612029565b5b60006123728582860161204a565b9250506020612383858286016121ee565b9150509250929050565b6000602082840312156123a3576123a2612029565b5b600082013567ffffffffffffffff8111156123c1576123c061202e565b5b6123cd84828501612177565b91505092915050565b6000819050919050565b6123e9816123d6565b82525050565b600060208201905061240460008301846123e0565b92915050565b60008115159050919050565b61241f8161240a565b82525050565b600060208201905061243a6000830184612416565b92915050565b612449816123d6565b811461245457600080fd5b50565b60008135905061246681612440565b92915050565b6000806040838503121561248357612482612029565b5b600061249185828601612457565b925050602083013567ffffffffffffffff8111156124b2576124b161202e565b5b6124be85828601612177565b9150509250929050565b600080604083850312156124df576124de612029565b5b600083013567ffffffffffffffff8111156124fd576124fc61202e565b5b61250985828601612177565b925050602083013567ffffffffffffffff81111561252a5761252961202e565b5b61253685828601612177565b9150509250929050565b60006020828403121561255657612555612029565b5b6000612564848285016121ee565b91505092915050565b60008060006060848603121561258657612585612029565b5b60006125948682870161204a565b93505060206125a58682870161204a565b925050604084013567ffffffffffffffff8111156125c6576125c561202e565b5b6125d286828701612177565b9150509250925092565b600080604083850312156125f3576125f2612029565b5b600083013567ffffffffffffffff8111156126115761261061202e565b5b61261d85828601612177565b925050602061262e8582860161204a565b9150509250929050565b600082825260208201905092915050565b7f4164647265737373205a65726f2063616e6e6f742063616c6c2074686973206660008201527f756e6374696f6e00000000000000000000000000000000000000000000000000602082015250565b60006126a5602783612638565b91506126b082612649565b604082019050919050565b600060208201905081810360008301526126d481612698565b9050919050565b7f436f756c64206e6f742073656e642074686520496e737572656420616d6f756e60008201527f7400000000000000000000000000000000000000000000000000000000000000602082015250565b6000612737602183612638565b9150612742826126db565b604082019050919050565b600060208201905081810360008301526127668161272a565b9050919050565b7f4e487b7100000000000000000000000000000000000000000000000000000000600052601160045260246000fd5b60006127a782611feb565b91507fffffffffffffffffffffffffffffffffffffffffffffffffffffffffffffffff8214156127da576127d961276d565b5b600182019050919050565b600081519050919050565b60005b8381101561280e5780820151818401526020810190506127f3565b8381111561281d576000848401525b50505050565b600061282e826127e5565b6128388185612638565b93506128488185602086016127f0565b61285181612069565b840191505092915050565b60006060820190506128716000830186611ff5565b81810360208301526128838185612823565b90506128926040830184611ff5565b949350505050565b7f43616e27742063616c6c20746869732066756e6374696f6e206265636175736560008201527f2069742773206c6f636b65640000000000000000000000000000000000000000602082015250565b60006128f6602c83612638565b91506129018261289a565b604082019050919050565b60006020820190508181036000830152612925816128e9565b9050919050565b7f4e6f7420746865206f776e6572206f662074686520706f7274666f6c696f0000600082015250565b6000612962601e83612638565b915061296d8261292c565b602082019050919050565b6000602082019050818103600083015261299181612955565b9050919050565b600081905092915050565b50565b60006129b3600083612998565b91506129be826129a3565b600082019050919050565b60006129d4826129a6565b9150819050919050565b7f5472616e73666572206661696c65642100000000000000000000000000000000600082015250565b6000612a14601083612638565b9150612a1f826129de565b602082019050919050565b60006020820190508181036000830152612a4381612a07565b9050919050565b6000612a5582611feb565b9150612a6083611feb565b9250827fffffffffffffffffffffffffffffffffffffffffffffffffffffffffffffffff03821115612a9557612a9461276d565b5b828201905092915050565b7f4e6f74204f776e6572206f662074686520506f7274666f6c696f000000000000600082015250565b6000612ad6601a83612638565b9150612ae182612aa0565b602082019050919050565b60006020820190508181036000830152612b0581612ac9565b9050919050565b7f4f6e6c79206f776e65722063616e2063616c6c20746869732066756e6374696f60008201527f6e00000000000000000000000000000000000000000000000000000000000000602082015250565b6000612b68602183612638565b9150612b7382612b0c565b604082019050919050565b60006020820190508181036000830152612b9781612b5b565b9050919050565b7f416d6f756e742067726561746572207468616e20636f6e74726163742042616c60008201527f616e636500000000000000000000000000000000000000000000000000000000602082015250565b6000612bfa602483612638565b9150612c0582612b9e565b604082019050919050565b60006020820190508181036000830152612c2981612bed565b9050919050565b7f5472616e73666572206661696c65640000000000000000000000000000000000600082015250565b6000612c66600f83612638565b9150612c7182612c30565b602082019050919050565b60006020820190508181036000830152612c9581612c59565b9050919050565b60006020820190508181036000830152612cb68184612823565b905092915050565b7f5472616e7366657220556e7375636365737366756c0000000000000000000000600082015250565b6000612cf4601583612638565b9150612cff82612cbe565b602082019050919050565b60006020820190508181036000830152612d2381612ce7565b9050919050565b7f57726f6e672050617373776f7264210000000000000000000000000000000000600082015250565b6000612d60600f83612638565b9150612d6b82612d2a565b602082019050919050565b60006020820190508181036000830152612d8f81612d53565b9050919050565b7f43616e6e6f7420636c61696d2061626f766520706f7274666f6c696f2073697a60008201527f6500000000000000000000000000000000000000000000000000000000000000602082015250565b6000612df2602183612638565b9150612dfd82612d96565b604082019050919050565b60006020820190508181036000830152612e2181612de5565b9050919050565b7f596f752068617665206e6f74206265656e207065726d697474656420746f207760008201527f6974686472617720796574000000000000000000000000000000000000000000602082015250565b6000612e84602b83612638565b9150612e8f82612e28565b604082019050919050565b60006020820190508181036000830152612eb381612e77565b9050919050565b7f596f7520617265206e6f7420612062656e656669636961727920746f2074686960008201527f7320706f7274666f6c696f000000000000000000000000000000000000000000602082015250565b6000612f16602b83612638565b9150612f2182612eba565b604082019050919050565b60006020820190508181036000830152612f4581612f09565b9050919050565b7f416d6f756e74206973206d6f7265207468616e20617070726f76656420666f7260008201527f2062656e65666963696172790000000000000000000000000000000000000000602082015250565b6000612fa8602c83612638565b9150612fb382612f4c565b604082019050919050565b60006020820190508181036000830152612fd781612f9b565b9050919050565b7f5472616e7366657220746f2062656e6566696369617279206661696c65642100600082015250565b6000613014601f83612638565b915061301f82612fde565b602082019050919050565b6000602082019050818103600083015261304381613007565b9050919050565b600061305582611feb565b915061306083611feb565b9250828210156130735761307261276d565b5b828203905092915050565b60006040820190506130936000830185611ff5565b6130a06020830184611ff5565b9392505050565b7f4e487b7100000000000000000000000000000000000000000000000000000000600052602260045260246000fd5b600060028204905060018216806130ee57607f821691505b60208210811415613102576131016130a7565b5b5091905056fea2646970667358221220c97821a59bb631d88de9d088351a93bdd1034efc6a24457bce90b8a8647bdc6264736f6c63430008090033",
    "linkReferences": {},
    "deployedLinkReferences": {}
}